{
  "_format": "hh-sol-artifact-1",
  "contractName": "Notepad",
  "sourceName": "contracts/Notepad.sol",
  "abi": [
    {
      "inputs": [],
      "stateMutability": "nonpayable",
      "type": "constructor"
    },
    {
      "anonymous": false,
      "inputs": [
        {
          "indexed": true,
          "internalType": "uint256",
          "name": "noteId",
          "type": "uint256"
        },
        {
          "indexed": false,
          "internalType": "string",
          "name": "content",
          "type": "string"
        },
        {
          "indexed": false,
          "internalType": "address",
          "name": "owner",
          "type": "address"
        }
      ],
      "name": "NoteCreated",
      "type": "event"
    },
    {
      "anonymous": false,
      "inputs": [
        {
          "indexed": true,
          "internalType": "uint256",
          "name": "noteId",
          "type": "uint256"
        }
      ],
      "name": "NoteDeleted",
      "type": "event"
    },
    {
      "anonymous": false,
      "inputs": [
        {
          "indexed": true,
          "internalType": "uint256",
          "name": "noteId",
          "type": "uint256"
        },
        {
          "indexed": false,
          "internalType": "string",
          "name": "newContent",
          "type": "string"
        }
      ],
      "name": "NoteUpdated",
      "type": "event"
    },
    {
      "inputs": [
        {
          "internalType": "string",
          "name": "_content",
          "type": "string"
        }
      ],
      "name": "createNote",
      "outputs": [],
      "stateMutability": "nonpayable",
      "type": "function"
    },
    {
      "inputs": [
        {
          "internalType": "uint256",
          "name": "_noteId",
          "type": "uint256"
        }
      ],
      "name": "deleteNote",
      "outputs": [],
      "stateMutability": "nonpayable",
      "type": "function"
    },
    {
      "inputs": [],
      "name": "getNoteCount",
      "outputs": [
        {
          "internalType": "uint256",
          "name": "",
          "type": "uint256"
        }
      ],
      "stateMutability": "view",
      "type": "function"
    },
    {
      "inputs": [
        {
          "internalType": "uint256",
          "name": "_noteId",
          "type": "uint256"
        }
      ],
      "name": "readNote",
      "outputs": [
        {
          "internalType": "string",
          "name": "",
          "type": "string"
        }
      ],
      "stateMutability": "view",
      "type": "function"
    },
    {
      "inputs": [
        {
          "internalType": "uint256",
          "name": "_noteId",
          "type": "uint256"
        },
        {
          "internalType": "string",
          "name": "_newContent",
          "type": "string"
        }
      ],
      "name": "updateNote",
      "outputs": [],
      "stateMutability": "nonpayable",
      "type": "function"
    }
  ],
  "bytecode": "0x60806040523480156200001157600080fd5b50620000586040518060400160405280601d81526020017f4465706c6f79696e67204e6f746570616420636f6e74726163742e2e2e000000815250620000af60201b60201c565b6000600181905550620000a96040518060400160405280601f81526020017f4e6f746520436f756e74657220696e697469616c697a656420746f3a202573008152506001546200015260201b60201c565b6200039e565b6200014f81604051602401620000c69190620002fc565b6040516020818303038152906040527f41304fac000000000000000000000000000000000000000000000000000000007bffffffffffffffffffffffffffffffffffffffffffffffffffffffff19166020820180517bffffffffffffffffffffffffffffffffffffffffffffffffffffffff8381831617835250505050620001f860201b60201c565b50565b620001f482826040516024016200016b9291906200033b565b6040516020818303038152906040527fb60e72cc000000000000000000000000000000000000000000000000000000007bffffffffffffffffffffffffffffffffffffffffffffffffffffffff19166020820180517bffffffffffffffffffffffffffffffffffffffffffffffffffffffff8381831617835250505050620001f860201b60201c565b5050565b6200021e81620002196200022160201b62000765176200024260201b60201c565b60201c565b50565b60006a636f6e736f6c652e6c6f679050600080835160208501845afa505050565b6200025660201b6200084a17819050919050565b620002606200036f565b565b600081519050919050565b600082825260208201905092915050565b60005b838110156200029e57808201518184015260208101905062000281565b60008484015250505050565b6000601f19601f8301169050919050565b6000620002c88262000262565b620002d481856200026d565b9350620002e68185602086016200027e565b620002f181620002aa565b840191505092915050565b60006020820190508181036000830152620003188184620002bb565b905092915050565b6000819050919050565b620003358162000320565b82525050565b60006040820190508181036000830152620003578185620002bb565b90506200036860208301846200032a565b9392505050565b7f4e487b7100000000000000000000000000000000000000000000000000000000600052605160045260246000fd5b61119a80620003ae6000396000f3fe608060405234801561001057600080fd5b50600436106100575760003560e01c806341fb87fb1461005c57806349781ef91461007a578063c47177f414610096578063d311651a146100b2578063e1250ab4146100e2575b600080fd5b6100646100fe565b604051610071919061086d565b60405180910390f35b610094600480360381019061008f9190610a0e565b610108565b005b6100b060048036038101906100ab9190610a6a565b6102d2565b005b6100cc60048036038101906100c79190610a6a565b61045b565b6040516100d99190610b16565b60405180910390f35b6100fc60048036038101906100f79190610b38565b6105e9565b005b6000600154905090565b600154821061014c576040517f08c379a000000000000000000000000000000000000000000000000000000000815260040161014390610bcd565b60405180910390fd5b3373ffffffffffffffffffffffffffffffffffffffff1660008084815260200190815260200160002060010160009054906101000a900473ffffffffffffffffffffffffffffffffffffffff1673ffffffffffffffffffffffffffffffffffffffff16146101ef576040517f08c379a00000000000000000000000000000000000000000000000000000000081526004016101e690610c39565b60405180910390fd5b6000815111610233576040517f08c379a000000000000000000000000000000000000000000000000000000000815260040161022a90610ca5565b60405180910390fd5b8060008084815260200190815260200160002060000190816102559190610ed1565b50817ff4a9990466472e087350221001dbdf2f5f11c2bcb1019e44fc8449ff3999eb94826040516102869190610b16565b60405180910390a26102ce6040518060400160405280601581526020017f4e6f7465202573207570646174656420627920257300000000000000000000008152508333610786565b5050565b6001548110610316576040517f08c379a000000000000000000000000000000000000000000000000000000000815260040161030d90610bcd565b60405180910390fd5b3373ffffffffffffffffffffffffffffffffffffffff1660008083815260200190815260200160002060010160009054906101000a900473ffffffffffffffffffffffffffffffffffffffff1673ffffffffffffffffffffffffffffffffffffffff16146103b9576040517f08c379a00000000000000000000000000000000000000000000000000000000081526004016103b090610c39565b60405180910390fd5b6040518060200160405280600081525060008083815260200190815260200160002060000190816103ea9190610ed1565b50807f89af6ba62ab348dc535a3187c267090f834c868a3820cd552a7110c3dc3eedb860405160405180910390a26104586040518060400160405280601581526020017f4e6f74652025732064656c6574656420627920257300000000000000000000008152508233610786565b50565b606060015482106104a1576040517f08c379a000000000000000000000000000000000000000000000000000000000815260040161049890610bcd565b60405180910390fd5b3373ffffffffffffffffffffffffffffffffffffffff1660008084815260200190815260200160002060010160009054906101000a900473ffffffffffffffffffffffffffffffffffffffff1673ffffffffffffffffffffffffffffffffffffffff1614610544576040517f08c379a000000000000000000000000000000000000000000000000000000000815260040161053b90610c39565b60405180910390fd5b600080838152602001908152602001600020600001805461056490610cf4565b80601f016020809104026020016040519081016040528092919081815260200182805461059090610cf4565b80156105dd5780601f106105b2576101008083540402835291602001916105dd565b820191906000526020600020905b8154815290600101906020018083116105c057829003601f168201915b50505050509050919050565b600081511161062d576040517f08c379a000000000000000000000000000000000000000000000000000000000815260040161062490610fef565b60405180910390fd5b60405180604001604052808281526020013373ffffffffffffffffffffffffffffffffffffffff16815250600080600154815260200190815260200160002060008201518160000190816106819190610ed1565b5060208201518160010160006101000a81548173ffffffffffffffffffffffffffffffffffffffff021916908373ffffffffffffffffffffffffffffffffffffffff1602179055509050506001547f12f69066f9b95f56404d1a1c21d5463f6b6c36f7eccac9d1ebf74ae435178cc28233604051610700929190611050565b60405180910390a261074a6040518060400160405280601581526020017f4e6f74652025732063726561746564206279202573000000000000000000000081525060015433610786565b6001600081548092919061075d906110af565b919050555050565b60006a636f6e736f6c652e6c6f679050600080835160208501845afa505050565b61082083838360405160240161079e939291906110f7565b6040516020818303038152906040527f1c7ec448000000000000000000000000000000000000000000000000000000007bffffffffffffffffffffffffffffffffffffffffffffffffffffffff19166020820180517bffffffffffffffffffffffffffffffffffffffffffffffffffffffff8381831617835250505050610825565b505050565b61083c8161083461076561083f565b63ffffffff16565b50565b61084a819050919050565b610852611135565b565b6000819050919050565b61086781610854565b82525050565b6000602082019050610882600083018461085e565b92915050565b6000604051905090565b600080fd5b600080fd5b6108a581610854565b81146108b057600080fd5b50565b6000813590506108c28161089c565b92915050565b600080fd5b600080fd5b6000601f19601f8301169050919050565b7f4e487b7100000000000000000000000000000000000000000000000000000000600052604160045260246000fd5b61091b826108d2565b810181811067ffffffffffffffff8211171561093a576109396108e3565b5b80604052505050565b600061094d610888565b90506109598282610912565b919050565b600067ffffffffffffffff821115610979576109786108e3565b5b610982826108d2565b9050602081019050919050565b82818337600083830152505050565b60006109b16109ac8461095e565b610943565b9050828152602081018484840111156109cd576109cc6108cd565b5b6109d884828561098f565b509392505050565b600082601f8301126109f5576109f46108c8565b5b8135610a0584826020860161099e565b91505092915050565b60008060408385031215610a2557610a24610892565b5b6000610a33858286016108b3565b925050602083013567ffffffffffffffff811115610a5457610a53610897565b5b610a60858286016109e0565b9150509250929050565b600060208284031215610a8057610a7f610892565b5b6000610a8e848285016108b3565b91505092915050565b600081519050919050565b600082825260208201905092915050565b60005b83811015610ad1578082015181840152602081019050610ab6565b60008484015250505050565b6000610ae882610a97565b610af28185610aa2565b9350610b02818560208601610ab3565b610b0b816108d2565b840191505092915050565b60006020820190508181036000830152610b308184610add565b905092915050565b600060208284031215610b4e57610b4d610892565b5b600082013567ffffffffffffffff811115610b6c57610b6b610897565b5b610b78848285016109e0565b91505092915050565b7f496e76616c6964206e6f74652049440000000000000000000000000000000000600082015250565b6000610bb7600f83610aa2565b9150610bc282610b81565b602082019050919050565b60006020820190508181036000830152610be681610baa565b9050919050565b7f4e6f7420746865206f776e657200000000000000000000000000000000000000600082015250565b6000610c23600d83610aa2565b9150610c2e82610bed565b602082019050919050565b60006020820190508181036000830152610c5281610c16565b9050919050565b7f5570646174656420636f6e74656e742063616e6e6f7420626520656d70747900600082015250565b6000610c8f601f83610aa2565b9150610c9a82610c59565b602082019050919050565b60006020820190508181036000830152610cbe81610c82565b9050919050565b7f4e487b7100000000000000000000000000000000000000000000000000000000600052602260045260246000fd5b60006002820490506001821680610d0c57607f821691505b602082108103610d1f57610d1e610cc5565b5b50919050565b60008190508160005260206000209050919050565b60006020601f8301049050919050565b600082821b905092915050565b600060088302610d877fffffffffffffffffffffffffffffffffffffffffffffffffffffffffffffffff82610d4a565b610d918683610d4a565b95508019841693508086168417925050509392505050565b6000819050919050565b6000610dce610dc9610dc484610854565b610da9565b610854565b9050919050565b6000819050919050565b610de883610db3565b610dfc610df482610dd5565b848454610d57565b825550505050565b600090565b610e11610e04565b610e1c818484610ddf565b505050565b5b81811015610e4057610e35600082610e09565b600181019050610e22565b5050565b601f821115610e8557610e5681610d25565b610e5f84610d3a565b81016020851015610e6e578190505b610e82610e7a85610d3a565b830182610e21565b50505b505050565b600082821c905092915050565b6000610ea860001984600802610e8a565b1980831691505092915050565b6000610ec18383610e97565b9150826002028217905092915050565b610eda82610a97565b67ffffffffffffffff811115610ef357610ef26108e3565b5b610efd8254610cf4565b610f08828285610e44565b600060209050601f831160018114610f3b5760008415610f29578287015190505b610f338582610eb5565b865550610f9b565b601f198416610f4986610d25565b60005b82811015610f7157848901518255600182019150602085019450602081019050610f4c565b86831015610f8e5784890151610f8a601f891682610e97565b8355505b6001600288020188555050505b505050505050565b7f4e6f746520636f6e74656e742063616e6e6f7420626520656d70747900000000600082015250565b6000610fd9601c83610aa2565b9150610fe482610fa3565b602082019050919050565b6000602082019050818103600083015261100881610fcc565b9050919050565b600073ffffffffffffffffffffffffffffffffffffffff82169050919050565b600061103a8261100f565b9050919050565b61104a8161102f565b82525050565b6000604082019050818103600083015261106a8185610add565b90506110796020830184611041565b9392505050565b7f4e487b7100000000000000000000000000000000000000000000000000000000600052601160045260246000fd5b60006110ba82610854565b91507fffffffffffffffffffffffffffffffffffffffffffffffffffffffffffffffff82036110ec576110eb611080565b5b600182019050919050565b600060608201905081810360008301526111118186610add565b9050611120602083018561085e565b61112d6040830184611041565b949350505050565b7f4e487b7100000000000000000000000000000000000000000000000000000000600052605160045260246000fdfea264697066735822122099ad329030e475f97ca196b54f07d7b0b66e8c27738bfe5d56e9d3f5fe49564c64736f6c63430008130033",
  "linkReferences": {},
  "deployedLinkReferences": {}
}